{"abi":[{"type":"constructor","inputs":[],"stateMutability":"nonpayable"},{"type":"receive","stateMutability":"payable"},{"type":"function","name":"addSupportedToken","inputs":[{"name":"token","type":"address","internalType":"address"}],"outputs":[],"stateMutability":"nonpayable"},{"type":"function","name":"depositCount","inputs":[],"outputs":[{"name":"","type":"uint256","internalType":"uint256"}],"stateMutability":"view"},{"type":"function","name":"depositETHToAztecPublic","inputs":[{"name":"to","type":"bytes32","internalType":"bytes32"},{"name":"secretHash","type":"bytes32","internalType":"bytes32"}],"outputs":[{"name":"key","type":"bytes32","internalType":"bytes32"},{"name":"index","type":"uint256","internalType":"uint256"}],"stateMutability":"payable"},{"type":"function","name":"depositToAztecPrivate","inputs":[{"name":"token","type":"address","internalType":"address"},{"name":"amount","type":"uint256","internalType":"uint256"},{"name":"secretHash","type":"bytes32","internalType":"bytes32"}],"outputs":[{"name":"key","type":"bytes32","internalType":"bytes32"},{"name":"index","type":"uint256","internalType":"uint256"}],"stateMutability":"nonpayable"},{"type":"function","name":"depositToAztecPublic","inputs":[{"name":"token","type":"address","internalType":"address"},{"name":"to","type":"bytes32","internalType":"bytes32"},{"name":"amount","type":"uint256","internalType":"uint256"},{"name":"secretHash","type":"bytes32","internalType":"bytes32"}],"outputs":[{"name":"key","type":"bytes32","internalType":"bytes32"},{"name":"index","type":"uint256","internalType":"uint256"}],"stateMutability":"nonpayable"},{"type":"function","name":"getDepositContentHash","inputs":[{"name":"token","type":"address","internalType":"address"},{"name":"amount","type":"uint256","internalType":"uint256"},{"name":"to","type":"bytes32","internalType":"bytes32"},{"name":"secretHash","type":"bytes32","internalType":"bytes32"}],"outputs":[{"name":"","type":"bytes32","internalType":"bytes32"}],"stateMutability":"pure"},{"type":"function","name":"getLockedBalance","inputs":[{"name":"token","type":"address","internalType":"address"}],"outputs":[{"name":"","type":"uint256","internalType":"uint256"}],"stateMutability":"view"},{"type":"function","name":"getSupportedTokens","inputs":[],"outputs":[{"name":"","type":"address[]","internalType":"address[]"}],"stateMutability":"view"},{"type":"function","name":"getWithdrawContentHash","inputs":[{"name":"token","type":"address","internalType":"address"},{"name":"amount","type":"uint256","internalType":"uint256"},{"name":"recipient","type":"address","internalType":"address"},{"name":"callerOnL1","type":"address","internalType":"address"}],"outputs":[{"name":"","type":"bytes32","internalType":"bytes32"}],"stateMutability":"pure"},{"type":"function","name":"initialize","inputs":[{"name":"_registry","type":"address","internalType":"address"},{"name":"_l2Bridge","type":"bytes32","internalType":"bytes32"},{"name":"_weth","type":"address","internalType":"address"}],"outputs":[],"stateMutability":"nonpayable"},{"type":"function","name":"initialized","inputs":[],"outputs":[{"name":"","type":"bool","internalType":"bool"}],"stateMutability":"view"},{"type":"function","name":"l2Bridge","inputs":[],"outputs":[{"name":"","type":"bytes32","internalType":"bytes32"}],"stateMutability":"view"},{"type":"function","name":"owner","inputs":[],"outputs":[{"name":"","type":"address","internalType":"address"}],"stateMutability":"view"},{"type":"function","name":"registry","inputs":[],"outputs":[{"name":"","type":"address","internalType":"contract IRegistry"}],"stateMutability":"view"},{"type":"function","name":"removeSupportedToken","inputs":[{"name":"token","type":"address","internalType":"address"}],"outputs":[],"stateMutability":"nonpayable"},{"type":"function","name":"supportedTokens","inputs":[{"name":"","type":"address","internalType":"address"}],"outputs":[{"name":"","type":"bool","internalType":"bool"}],"stateMutability":"view"},{"type":"function","name":"tokenList","inputs":[{"name":"","type":"uint256","internalType":"uint256"}],"outputs":[{"name":"","type":"address","internalType":"address"}],"stateMutability":"view"},{"type":"function","name":"weth","inputs":[],"outputs":[{"name":"","type":"address","internalType":"address"}],"stateMutability":"view"},{"type":"function","name":"withdraw","inputs":[{"name":"token","type":"address","internalType":"address"},{"name":"recipient","type":"address","internalType":"address"},{"name":"amount","type":"uint256","internalType":"uint256"},{"name":"withCaller","type":"bool","internalType":"bool"},{"name":"blockNumber","type":"uint256","internalType":"uint256"},{"name":"leafIndex","type":"uint256","internalType":"uint256"},{"name":"path","type":"bytes32[]","internalType":"bytes32[]"}],"outputs":[],"stateMutability":"nonpayable"},{"type":"event","name":"DepositToAztecPrivate","inputs":[{"name":"token","type":"address","indexed":true,"internalType":"address"},{"name":"amount","type":"uint256","indexed":false,"internalType":"uint256"},{"name":"secretHash","type":"bytes32","indexed":false,"internalType":"bytes32"},{"name":"key","type":"bytes32","indexed":false,"internalType":"bytes32"},{"name":"index","type":"uint256","indexed":false,"internalType":"uint256"}],"anonymous":false},{"type":"event","name":"DepositToAztecPublic","inputs":[{"name":"token","type":"address","indexed":true,"internalType":"address"},{"name":"to","type":"bytes32","indexed":true,"internalType":"bytes32"},{"name":"amount","type":"uint256","indexed":false,"internalType":"uint256"},{"name":"secretHash","type":"bytes32","indexed":false,"internalType":"bytes32"},{"name":"key","type":"bytes32","indexed":false,"internalType":"bytes32"},{"name":"index","type":"uint256","indexed":false,"internalType":"uint256"}],"anonymous":false},{"type":"event","name":"Initialized","inputs":[{"name":"registry","type":"address","indexed":true,"internalType":"address"},{"name":"l2Bridge","type":"bytes32","indexed":true,"internalType":"bytes32"}],"anonymous":false},{"type":"event","name":"TokenAdded","inputs":[{"name":"token","type":"address","indexed":true,"internalType":"address"}],"anonymous":false},{"type":"event","name":"TokenRemoved","inputs":[{"name":"token","type":"address","indexed":true,"internalType":"address"}],"anonymous":false},{"type":"event","name":"WithdrawFromAztec","inputs":[{"name":"token","type":"address","indexed":true,"internalType":"address"},{"name":"recipient","type":"address","indexed":true,"internalType":"address"},{"name":"amount","type":"uint256","indexed":false,"internalType":"uint256"}],"anonymous":false},{"type":"error","name":"AlreadyInitialized","inputs":[]},{"type":"error","name":"ETHTransferFailed","inputs":[]},{"type":"error","name":"NotInitialized","inputs":[]},{"type":"error","name":"NotOwner","inputs":[]},{"type":"error","name":"SafeERC20FailedOperation","inputs":[{"name":"token","type":"address","internalType":"address"}]},{"type":"error","name":"TokenNotSupported","inputs":[{"name":"token","type":"address","internalType":"address"}]},{"type":"error","name":"ZeroAddress","inputs":[]},{"type":"error","name":"ZeroAmount","inputs":[]}],"bytecode":{"object":"0x6080604052348015600e575f5ffd5b50600280546001600160a01b0319163317905561177c8061002e5f395ff3fe608060405260043610610113575f3560e01c80636d69fcaf1161009d578063ae1f6aaf11610062578063ae1f6aaf1461031b578063c408689314610330578063d26b3e6e1461034f578063d3c7c2c71461036e578063f67127271461038f575f5ffd5b80636d69fcaf1461028157806376319190146102a05780637b103999146102bf5780638da5cb5b146102dd5780639ead7222146102fc575f5ffd5b80632dfdf0b5116100e35780632dfdf0b5146101c95780633fc8cef3146101de5780634113827014610215578063632864fd1461023457806368c4ac2614610253575f5ffd5b80630585fb421461011e578063158ef93e1461013f578063209696fc1461017457806326b83cc21461019c575f5ffd5b3661011a57005b5f5ffd5b348015610129575f5ffd5b5061013d610138366004611390565b6103ae565b005b34801561014a575f5ffd5b5060025461015f90600160a01b900460ff1681565b60405190151581526020015b60405180910390f35b610187610182366004611456565b61067f565b6040805192835260208301919091520161016b565b3480156101a7575f5ffd5b506101bb6101b6366004611476565b61091d565b60405190815260200161016b565b3480156101d4575f5ffd5b506101bb60065481565b3480156101e9575f5ffd5b506005546101fd906001600160a01b031681565b6040516001600160a01b03909116815260200161016b565b348015610220575f5ffd5b506101bb61022f3660046114ae565b610933565b34801561023f575f5ffd5b5061018761024e366004611476565b610940565b34801561025e575f5ffd5b5061015f61026d3660046114fe565b60036020525f908152604090205460ff1681565b34801561028c575f5ffd5b5061013d61029b3660046114fe565b610b79565b3480156102ab575f5ffd5b5061013d6102ba3660046114fe565b610c76565b3480156102ca575f5ffd5b505f546101fd906001600160a01b031681565b3480156102e8575f5ffd5b506002546101fd906001600160a01b031681565b348015610307575f5ffd5b506101fd610316366004611520565b610d09565b348015610326575f5ffd5b506101bb60015481565b34801561033b575f5ffd5b506101bb61034a3660046114fe565b610d31565b34801561035a575f5ffd5b5061013d610369366004611537565b610d9f565b348015610379575f5ffd5b50610382610e8f565b60405161016b9190611576565b34801561039a575f5ffd5b506101876103a93660046115c1565b610eef565b600254600160a01b900460ff166103d8576040516321c4e35760e21b815260040160405180910390fd5b6001600160a01b0387166103ff5760405163d92e233d60e01b815260040160405180910390fd5b855f0361041f57604051631f2a200560e01b815260040160405180910390fd5b5f8561042b575f61042d565b335b90505f61043c8a898b85611125565b90505f5f5f9054906101000a90046001600160a01b03166001600160a01b031663a32fbb7b6040518163ffffffff1660e01b8152600401602060405180830381865afa15801561048e573d5f5f3e3d5ffd5b505050506040513d601f19601f820116820180604052508101906104b291906115f3565b60408051808201825230815260016020820152905163215c043960e11b81529192506001600160a01b038316916342b80872916104fd9186905f908d908d908d908d9060040161160e565b5f604051808303815f87803b158015610514575f5ffd5b505af1158015610526573d5f5f3e3d5ffd5b50506005546001600160a01b03908116908e16039150610611905057600554604051632e1a7d4d60e01b8152600481018b90526001600160a01b0390911690632e1a7d4d906024015f604051808303815f87803b158015610585575f5ffd5b505af1158015610597573d5f5f3e3d5ffd5b505050505f8a6001600160a01b03168a6040515f6040518083038185875af1925050503d805f81146105e4576040519150601f19603f3d011682016040523d82523d5f602084013e6105e9565b606091505b505090508061060b5760405163b12d13eb60e01b815260040160405180910390fd5b50610625565b6106256001600160a01b038c168b8b61116d565b896001600160a01b03168b6001600160a01b03167f33dc4b232c75d4962b889566cbf603530fd4bded659bfd2e471fc1f2a508fd298b60405161066a91815260200190565b60405180910390a35050505050505050505050565b6002545f908190600160a01b900460ff166106ad576040516321c4e35760e21b815260040160405180910390fd5b345f036106cd57604051631f2a200560e01b815260040160405180910390fd5b6005546001600160a01b03165f9081526003602052604090205460ff1661071b576005546040516306439c6b60e01b81526001600160a01b0390911660048201526024015b60405180910390fd5b60055f9054906101000a90046001600160a01b03166001600160a01b031663d0e30db0346040518263ffffffff1660e01b81526004015f604051808303818588803b158015610768575f5ffd5b505af115801561077a573d5f5f3e3d5ffd5b50506005545f935061079a92506001600160a01b031690503487876111a7565b90505f5f5f9054906101000a90046001600160a01b03166001600160a01b031663368c093c6040518163ffffffff1660e01b8152600401602060405180830381865afa1580156107ec573d5f5f3e3d5ffd5b505050506040513d601f19601f8201168201806040525081019061081091906115f3565b604080518082018252600180548252602082019081529151631f6d510b60e01b8152905160048201529051602482015260448101849052606481018790529091506001600160a01b03821690631f6d510b9060840160408051808303815f875af1158015610880573d5f5f3e3d5ffd5b505050506040513d601f19601f820116820180604052508101906108a49190611683565b600680549296509094505f6108b8836116a5565b909155505060055460408051348152602081018890529081018690526060810185905287916001600160a01b0316907f4d287db0aa3d88e05a401b15858792bcaffcf8bf15bc5ac0cfb3d30cd6fe5eb69060800160405180910390a350509250929050565b5f61092a858585856111a7565b95945050505050565b5f61092a85858585611125565b6002545f908190600160a01b900460ff1661096e576040516321c4e35760e21b815260040160405180910390fd5b6001600160a01b0386165f90815260036020526040902054869060ff166109b3576040516306439c6b60e01b81526001600160a01b0382166004820152602401610712565b845f036109d357604051631f2a200560e01b815260040160405180910390fd5b6109e86001600160a01b0388163330886111dc565b5f6109f5888789886111a7565b90505f5f5f9054906101000a90046001600160a01b03166001600160a01b031663368c093c6040518163ffffffff1660e01b8152600401602060405180830381865afa158015610a47573d5f5f3e3d5ffd5b505050506040513d601f19601f82011682018060405250810190610a6b91906115f3565b604080518082018252600180548252602082019081529151631f6d510b60e01b8152905160048201529051602482015260448101849052606481018890529091506001600160a01b03821690631f6d510b9060840160408051808303815f875af1158015610adb573d5f5f3e3d5ffd5b505050506040513d601f19601f82011682018060405250810190610aff9190611683565b600680549297509095505f610b13836116a5565b909155505060408051888152602081018890529081018690526060810185905288906001600160a01b038b16907f4d287db0aa3d88e05a401b15858792bcaffcf8bf15bc5ac0cfb3d30cd6fe5eb69060800160405180910390a350505094509492505050565b6002546001600160a01b03163314610ba4576040516330cd747160e01b815260040160405180910390fd5b6001600160a01b038116610bcb5760405163d92e233d60e01b815260040160405180910390fd5b6001600160a01b0381165f9081526003602052604090205460ff16610c73576001600160a01b0381165f81815260036020526040808220805460ff1916600190811790915560048054918201815583527f8a35acfbc15ff81a39ae7d344fd709f28e8600b4aa8c65c6b64bfe7fe36bd19b0180546001600160a01b03191684179055517f784c8f4dbf0ffedd6e72c76501c545a70f8b203b30a26ce542bf92ba87c248a49190a25b50565b6002546001600160a01b03163314610ca1576040516330cd747160e01b815260040160405180910390fd5b6001600160a01b0381165f9081526003602052604090205460ff1615610c73576001600160a01b0381165f81815260036020526040808220805460ff19169055517f4c910b69fe65a61f7531b9c5042b2329ca7179c77290aa7e2eb3afa3c8511fd39190a250565b60048181548110610d18575f80fd5b5f918252602090912001546001600160a01b0316905081565b6040516370a0823160e01b81523060048201525f906001600160a01b038316906370a0823190602401602060405180830381865afa158015610d75573d5f5f3e3d5ffd5b505050506040513d601f19601f82011682018060405250810190610d9991906116c9565b92915050565b6002546001600160a01b03163314610dca576040516330cd747160e01b815260040160405180910390fd5b600254600160a01b900460ff1615610df45760405162dc149f60e41b815260040160405180910390fd5b6001600160a01b038316610e1b5760405163d92e233d60e01b815260040160405180910390fd5b5f80546001600160a01b03199081166001600160a01b0386811691821784556001869055600580549093169085161790915560028054600160a01b60ff60a01b1990911617905560405184927f4355fa6a3c5dc184a823b30cab53621fe9dcff9be763f974d01038f9c26c511e91a3505050565b60606004805480602002602001604051908101604052809291908181526020018280548015610ee557602002820191905f5260205f20905b81546001600160a01b03168152600190910190602001808311610ec7575b5050505050905090565b6002545f908190600160a01b900460ff16610f1d576040516321c4e35760e21b815260040160405180910390fd5b6001600160a01b0385165f90815260036020526040902054859060ff16610f62576040516306439c6b60e01b81526001600160a01b0382166004820152602401610712565b845f03610f8257604051631f2a200560e01b815260040160405180910390fd5b610f976001600160a01b0387163330886111dc565b5f610fa4878783886111a7565b90505f5f5f9054906101000a90046001600160a01b03166001600160a01b031663368c093c6040518163ffffffff1660e01b8152600401602060405180830381865afa158015610ff6573d5f5f3e3d5ffd5b505050506040513d601f19601f8201168201806040525081019061101a91906115f3565b604080518082018252600180548252602082019081529151631f6d510b60e01b8152905160048201529051602482015260448101849052606481018890529091506001600160a01b03821690631f6d510b9060840160408051808303815f875af115801561108a573d5f5f3e3d5ffd5b505050506040513d601f19601f820116820180604052508101906110ae9190611683565b600680549297509095505f6110c2836116a5565b90915550506040805188815260208101889052908101869052606081018590526001600160a01b038916907fe272bee62aa960ceb3aaa65fac87a1d573e13af6e4a4329f61b936e14916100e9060800160405180910390a2505050935093915050565b604080516001600160a01b038087166020830152918101859052818416606082015290821660808201525f9061092a9060a0015b604051602081830303815290604052611218565b61117a83838360016112ad565b6111a257604051635274afe760e01b81526001600160a01b0384166004820152602401610712565b505050565b604080516001600160a01b038616602082015290810184905260608101839052608081018290525f9061092a9060a001611159565b6111ea84848484600161130f565b61121257604051635274afe760e01b81526001600160a01b0385166004820152602401610712565b50505050565b6040805160018082528183019092525f916020820181803683370190505060028360405161124691906116f7565b602060405180830381855afa158015611261573d5f5f3e3d5ffd5b5050506040513d601f19601f8201168201806040525081019061128491906116c9565b604051602001611295929190611702565b604051602081830303815290604052610d9990611720565b60405163a9059cbb60e01b5f8181526001600160a01b038616600452602485905291602083604481808b5af1925060015f511483166113035783831516156112f7573d5f823e3d81fd5b5f873b113d1516831692505b60405250949350505050565b6040516323b872dd60e01b5f8181526001600160a01b038781166004528616602452604485905291602083606481808c5af1925060015f5114831661136b57838315161561135f573d5f823e3d81fd5b5f883b113d1516831692505b604052505f60605295945050505050565b6001600160a01b0381168114610c73575f5ffd5b5f5f5f5f5f5f5f5f60e0898b0312156113a7575f5ffd5b88356113b28161137c565b975060208901356113c28161137c565b965060408901359550606089013580151581146113dd575f5ffd5b94506080890135935060a0890135925060c089013567ffffffffffffffff811115611406575f5ffd5b8901601f81018b13611416575f5ffd5b803567ffffffffffffffff81111561142c575f5ffd5b8b60208260051b8401011115611440575f5ffd5b989b979a50959850939692959194602001935050565b5f5f60408385031215611467575f5ffd5b50508035926020909101359150565b5f5f5f5f60808587031215611489575f5ffd5b84356114948161137c565b966020860135965060408601359560600135945092505050565b5f5f5f5f608085870312156114c1575f5ffd5b84356114cc8161137c565b93506020850135925060408501356114e38161137c565b915060608501356114f38161137c565b939692955090935050565b5f6020828403121561150e575f5ffd5b81356115198161137c565b9392505050565b5f60208284031215611530575f5ffd5b5035919050565b5f5f5f60608486031215611549575f5ffd5b83356115548161137c565b925060208401359150604084013561156b8161137c565b809150509250925092565b602080825282518282018190525f918401906040840190835b818110156115b65783516001600160a01b031683526020938401939092019160010161158f565b509095945050505050565b5f5f5f606084860312156115d3575f5ffd5b83356115de8161137c565b95602085013595506040909401359392505050565b5f60208284031215611603575f5ffd5b81516115198161137c565b87516001600160a01b031681526020808901519082015260408101879052606081018690526080810185905260a0810184905260e060c0820181905281018290525f6001600160fb1b03831115611663575f5ffd5b8260051b8085610100850137919091016101000198975050505050505050565b5f5f60408385031215611694575f5ffd5b505080516020909101519092909150565b5f600182016116c257634e487b7160e01b5f52601160045260245ffd5b5060010190565b5f602082840312156116d9575f5ffd5b5051919050565b5f81518060208401855e5f93019283525090919050565b5f61151982846116e0565b5f61170d82856116e0565b60ff199390931683525050601f01919050565b80516020808301519190811015611740575f198160200360031b1b821691505b5091905056fea2646970667358221220e62123c3a04b305ceb0576c8284ffde98da3f9e1859f8de602502ea30e6ace4664736f6c634300081b0033","linkReferences":{}},"methodIdentifiers":{"addSupportedToken(address)":"6d69fcaf","depositCount()":"2dfdf0b5","depositETHToAztecPublic(bytes32,bytes32)":"209696fc","depositToAztecPrivate(address,uint256,bytes32)":"f6712727","depositToAztecPublic(address,bytes32,uint256,bytes32)":"632864fd","getDepositContentHash(address,uint256,bytes32,bytes32)":"26b83cc2","getLockedBalance(address)":"c4086893","getSupportedTokens()":"d3c7c2c7","getWithdrawContentHash(address,uint256,address,address)":"41138270","initialize(address,bytes32,address)":"d26b3e6e","initialized()":"158ef93e","l2Bridge()":"ae1f6aaf","owner()":"8da5cb5b","registry()":"7b103999","removeSupportedToken(address)":"76319190","supportedTokens(address)":"68c4ac26","tokenList(uint256)":"9ead7222","weth()":"3fc8cef3","withdraw(address,address,uint256,bool,uint256,uint256,bytes32[])":"0585fb42"},"id":25}